{
  "_format": "hh-sol-artifact-1",
  "contractName": "Web3RSVP",
  "sourceName": "contracts/Web3RSVP.sol",
  "abi": [
    {
      "inputs": [],
      "name": "ALREADY_CLAIMED",
      "type": "error"
    },
    {
      "inputs": [],
      "name": "ALREADY_CONFIRMED_MEMBER",
      "type": "error"
    },
    {
      "inputs": [],
      "name": "ALREADY_PAID",
      "type": "error"
    },
    {
      "inputs": [],
      "name": "ALREADY_PAID_OUT",
      "type": "error"
    },
    {
      "inputs": [],
      "name": "EVENT_ALREADY_HAPPENED",
      "type": "error"
    },
    {
      "inputs": [],
      "name": "EVENT_REACHED_MAX_CAPACITY",
      "type": "error"
    },
    {
      "inputs": [],
      "name": "FAILED_TO_SEND_ETHER",
      "type": "error"
    },
    {
      "inputs": [],
      "name": "NOT_AUTHORIZED_OWNER",
      "type": "error"
    },
    {
      "inputs": [],
      "name": "NOT_ENOUGH_ETH_SEND",
      "type": "error"
    },
    {
      "inputs": [],
      "name": "NO_RSVP_TO_CONFIRM",
      "type": "error"
    },
    {
      "inputs": [],
      "name": "TOO_EARLY_TIME_PERIOD_NOT_ENDED",
      "type": "error"
    },
    {
      "anonymous": false,
      "inputs": [
        {
          "indexed": false,
          "internalType": "bytes32",
          "name": "eventID",
          "type": "bytes32"
        },
        {
          "indexed": false,
          "internalType": "address",
          "name": "attendeeAddress",
          "type": "address"
        }
      ],
      "name": "ConfirmedAttendee",
      "type": "event"
    },
    {
      "anonymous": false,
      "inputs": [
        {
          "indexed": false,
          "internalType": "bytes32",
          "name": "eventID",
          "type": "bytes32"
        }
      ],
      "name": "DepositsPaidOut",
      "type": "event"
    },
    {
      "anonymous": false,
      "inputs": [
        {
          "indexed": false,
          "internalType": "bytes32",
          "name": "eventID",
          "type": "bytes32"
        },
        {
          "indexed": false,
          "internalType": "address",
          "name": "creatorAddress",
          "type": "address"
        },
        {
          "indexed": false,
          "internalType": "uint256",
          "name": "eventTimestamp",
          "type": "uint256"
        },
        {
          "indexed": false,
          "internalType": "uint256",
          "name": "maxCapacity",
          "type": "uint256"
        },
        {
          "indexed": false,
          "internalType": "uint256",
          "name": "deposit",
          "type": "uint256"
        },
        {
          "indexed": false,
          "internalType": "string",
          "name": "eventDataCID",
          "type": "string"
        }
      ],
      "name": "NewEventCreated",
      "type": "event"
    },
    {
      "anonymous": false,
      "inputs": [
        {
          "indexed": false,
          "internalType": "bytes32",
          "name": "eventID",
          "type": "bytes32"
        },
        {
          "indexed": false,
          "internalType": "address",
          "name": "attendeeAddress",
          "type": "address"
        }
      ],
      "name": "NewRSVP",
      "type": "event"
    },
    {
      "inputs": [
        {
          "internalType": "bytes32",
          "name": "eventId",
          "type": "bytes32"
        }
      ],
      "name": "confirmAllAttendees",
      "outputs": [],
      "stateMutability": "nonpayable",
      "type": "function"
    },
    {
      "inputs": [
        {
          "internalType": "bytes32",
          "name": "eventId",
          "type": "bytes32"
        },
        {
          "internalType": "address",
          "name": "attendee",
          "type": "address"
        }
      ],
      "name": "confirmAttendee",
      "outputs": [],
      "stateMutability": "nonpayable",
      "type": "function"
    },
    {
      "inputs": [
        {
          "internalType": "uint256",
          "name": "eventTimestamp",
          "type": "uint256"
        },
        {
          "internalType": "uint256",
          "name": "deposit",
          "type": "uint256"
        },
        {
          "internalType": "uint256",
          "name": "maxCapacity",
          "type": "uint256"
        },
        {
          "internalType": "string",
          "name": "eventDataCID",
          "type": "string"
        }
      ],
      "name": "createNewEvent",
      "outputs": [],
      "stateMutability": "nonpayable",
      "type": "function"
    },
    {
      "inputs": [
        {
          "internalType": "bytes32",
          "name": "eventId",
          "type": "bytes32"
        }
      ],
      "name": "createNewRSVP",
      "outputs": [],
      "stateMutability": "payable",
      "type": "function"
    },
    {
      "inputs": [
        {
          "internalType": "bytes32",
          "name": "",
          "type": "bytes32"
        }
      ],
      "name": "idToEvent",
      "outputs": [
        {
          "internalType": "bytes32",
          "name": "eventId",
          "type": "bytes32"
        },
        {
          "internalType": "string",
          "name": "eventDataCID",
          "type": "string"
        },
        {
          "internalType": "address",
          "name": "eventOwner",
          "type": "address"
        },
        {
          "internalType": "uint256",
          "name": "eventTimestamp",
          "type": "uint256"
        },
        {
          "internalType": "uint256",
          "name": "deposit",
          "type": "uint256"
        },
        {
          "internalType": "uint256",
          "name": "maxCapacity",
          "type": "uint256"
        },
        {
          "internalType": "bool",
          "name": "paidOut",
          "type": "bool"
        }
      ],
      "stateMutability": "view",
      "type": "function"
    },
    {
      "inputs": [
        {
          "internalType": "bytes32",
          "name": "eventId",
          "type": "bytes32"
        }
      ],
      "name": "withdrawUnclaimedDeposits",
      "outputs": [],
      "stateMutability": "nonpayable",
      "type": "function"
    }
  ],
  "bytecode": "0x608060405234801561001057600080fd5b50611c47806100206000396000f3fe6080604052600436106100545760003560e01c806292098c1461005957806317f0165a146100825780636dcdf2cd1461009e57806379747571146100c7578063909ef021146100f0578063acdbe01214610133575b600080fd5b34801561006557600080fd5b50610080600480360381019061007b919061160c565b61015c565b005b61009c600480360381019061009791906115a7565b610378565b005b3480156100aa57600080fd5b506100c560048036038101906100c091906115d0565b6105e7565b005b3480156100d357600080fd5b506100ee60048036038101906100e991906115a7565b610b1f565b005b3480156100fc57600080fd5b50610117600480360381019061011291906115a7565b610fac565b60405161012a97969594939291906118a1565b60405180910390f35b34801561013f57600080fd5b5061015a600480360381019061015591906115a7565b6110a3565b005b6000333087878760405160200161017795949392919061177f565b60405160208183030381529060405280519060200120905060608060405180610120016040528084815260200186868080601f016020809104026020016040519081016040528093929190818152602001838380828437600081840152601f19601f8201169050808301925050505050505081526020013373ffffffffffffffffffffffffffffffffffffffff168152602001898152602001888152602001878152602001838152602001828152602001600015158152506000808581526020019081526020016000206000820151816000015560208201518160010190805190602001906102679291906113f1565b5060408201518160020160006101000a81548173ffffffffffffffffffffffffffffffffffffffff021916908373ffffffffffffffffffffffffffffffffffffffff160217905550606082015181600301556080820151816004015560a0820151816005015560c08201518160060190805190602001906102e9929190611477565b5060e0820151816007019080519060200190610306929190611477565b506101008201518160080160006101000a81548160ff0219169083151502179055509050507f2553138c3f9c9008f266dbdbe9fc64f5b71e098d06ef714a190a65a8b9fc6bf383338a898b8a8a6040516103669796959493929190611837565b60405180910390a15050505050505050565b60008060008381526020019081526020016000209050806004015434146103cb576040517fa876c3a500000000000000000000000000000000000000000000000000000000815260040160405180910390fd5b80600301544210610408576040517fba970faa00000000000000000000000000000000000000000000000000000000815260040160405180910390fd5b80600501548160060180549050111561044d576040517fb302719f00000000000000000000000000000000000000000000000000000000815260040160405180910390fd5b60005b81600601805490508160ff161015610544573373ffffffffffffffffffffffffffffffffffffffff16826006018260ff16815481106104b8577f4e487b7100000000000000000000000000000000000000000000000000000000600052603260045260246000fd5b9060005260206000200160009054906101000a900473ffffffffffffffffffffffffffffffffffffffff1673ffffffffffffffffffffffffffffffffffffffff161415610531576040517faa40369200000000000000000000000000000000000000000000000000000000815260040160405180910390fd5b808061053c90611af5565b915050610450565b5080600601339080600181540180825580915050600190039060005260206000200160009091909190916101000a81548173ffffffffffffffffffffffffffffffffffffffff021916908373ffffffffffffffffffffffffffffffffffffffff1602179055507fb79f4240bbdd272d98e02a5db7f0cf156e5fc000961c517670a26eeeec63ed9082336040516105db92919061180e565b60405180910390a15050565b600080600084815260200190815260200160002090508060020160009054906101000a900473ffffffffffffffffffffffffffffffffffffffff1673ffffffffffffffffffffffffffffffffffffffff163373ffffffffffffffffffffffffffffffffffffffff1614610686576040517f8933565300000000000000000000000000000000000000000000000000000000815260040160405180910390fd5b600080600090505b82600601805490508160ff1610156107bd578373ffffffffffffffffffffffffffffffffffffffff16836006018260ff16815481106106f6577f4e487b7100000000000000000000000000000000000000000000000000000000600052603260045260246000fd5b9060005260206000200160009054906101000a900473ffffffffffffffffffffffffffffffffffffffff1673ffffffffffffffffffffffffffffffffffffffff1614156107aa57826006018160ff168154811061077c577f4e487b7100000000000000000000000000000000000000000000000000000000600052603260045260246000fd5b9060005260206000200160009054906101000a900473ffffffffffffffffffffffffffffffffffffffff1691505b80806107b590611af5565b91505061068e565b508273ffffffffffffffffffffffffffffffffffffffff168173ffffffffffffffffffffffffffffffffffffffff1614610823576040517f1047637100000000000000000000000000000000000000000000000000000000815260040160405180910390fd5b60005b82600701805490508160ff16101561091a578373ffffffffffffffffffffffffffffffffffffffff16836007018260ff168154811061088e577f4e487b7100000000000000000000000000000000000000000000000000000000600052603260045260246000fd5b9060005260206000200160009054906101000a900473ffffffffffffffffffffffffffffffffffffffff1673ffffffffffffffffffffffffffffffffffffffff161415610907576040517fa308b6e300000000000000000000000000000000000000000000000000000000815260040160405180910390fd5b808061091290611af5565b915050610826565b508160080160009054906101000a900460ff1615610964576040517fb0e14e9900000000000000000000000000000000000000000000000000000000815260040160405180910390fd5b81600701839080600181540180825580915050600190039060005260206000200160009091909190916101000a81548173ffffffffffffffffffffffffffffffffffffffff021916908373ffffffffffffffffffffffffffffffffffffffff16021790555060008373ffffffffffffffffffffffffffffffffffffffff1683600401546040516109f3906117de565b60006040518083038185875af1925050503d8060008114610a30576040519150601f19603f3d011682016040523d82523d6000602084013e610a35565b606091505b5050905080610adf5782600701805480610a78577f4e487b7100000000000000000000000000000000000000000000000000000000600052603160045260246000fd5b6001900381819060005260206000200160006101000a81549073ffffffffffffffffffffffffffffffffffffffff021916905590556040517f3f7d8a9400000000000000000000000000000000000000000000000000000000815260040160405180910390fd5b7ff8d1583a733d83bdd3ef5464129d0a95a36d62b382d31c6d0467a61f4264381b8585604051610b1092919061180e565b60405180910390a15050505050565b60008060008381526020019081526020016000206040518061012001604052908160008201548152602001600182018054610b5990611ac3565b80601f0160208091040260200160405190810160405280929190818152602001828054610b8590611ac3565b8015610bd25780601f10610ba757610100808354040283529160200191610bd2565b820191906000526020600020905b815481529060010190602001808311610bb557829003601f168201915b505050505081526020016002820160009054906101000a900473ffffffffffffffffffffffffffffffffffffffff1673ffffffffffffffffffffffffffffffffffffffff1673ffffffffffffffffffffffffffffffffffffffff16815260200160038201548152602001600482015481526020016005820154815260200160068201805480602002602001604051908101604052809291908181526020018280548015610cd457602002820191906000526020600020905b8160009054906101000a900473ffffffffffffffffffffffffffffffffffffffff1673ffffffffffffffffffffffffffffffffffffffff1681526020019060010190808311610c8a575b5050505050815260200160078201805480602002602001604051908101604052809291908181526020018280548015610d6257602002820191906000526020600020905b8160009054906101000a900473ffffffffffffffffffffffffffffffffffffffff1673ffffffffffffffffffffffffffffffffffffffff1681526020019060010190808311610d18575b505050505081526020016008820160009054906101000a900460ff161515151581525050905080610100015115610dc5576040517fd2e53ca700000000000000000000000000000000000000000000000000000000815260040160405180910390fd5b62093a808160600151610dd8919061193e565b4211610e10576040517f9daf64e200000000000000000000000000000000000000000000000000000000815260040160405180910390fd5b806040015173ffffffffffffffffffffffffffffffffffffffff163373ffffffffffffffffffffffffffffffffffffffff1614610e79576040517f8933565300000000000000000000000000000000000000000000000000000000815260040160405180910390fd5b60008160e00151518260c0015151610e9191906119ee565b90506000826080015182610ea59190611994565b905060018361010001901515908115158152505060003373ffffffffffffffffffffffffffffffffffffffff1682604051610edf906117de565b60006040518083038185875af1925050503d8060008114610f1c576040519150601f19603f3d011682016040523d82523d6000602084013e610f21565b606091505b5050905080610f6e576000846101000190151590811515815250506040517f3f7d8a9400000000000000000000000000000000000000000000000000000000815260040160405180910390fd5b7f393073ea1365f611c3d2f240c992960d2b99dc81715555d3fc40fc55ba80af9c85604051610f9d91906117f3565b60405180910390a15050505050565b6000602052806000526040600020600091509050806000015490806001018054610fd590611ac3565b80601f016020809104026020016040519081016040528092919081815260200182805461100190611ac3565b801561104e5780601f106110235761010080835404028352916020019161104e565b820191906000526020600020905b81548152906001019060200180831161103157829003601f168201915b5050505050908060020160009054906101000a900473ffffffffffffffffffffffffffffffffffffffff16908060030154908060040154908060050154908060080160009054906101000a900460ff16905087565b600080600083815260200190815260200160002060405180610120016040529081600082015481526020016001820180546110dd90611ac3565b80601f016020809104026020016040519081016040528092919081815260200182805461110990611ac3565b80156111565780601f1061112b57610100808354040283529160200191611156565b820191906000526020600020905b81548152906001019060200180831161113957829003601f168201915b505050505081526020016002820160009054906101000a900473ffffffffffffffffffffffffffffffffffffffff1673ffffffffffffffffffffffffffffffffffffffff1673ffffffffffffffffffffffffffffffffffffffff1681526020016003820154815260200160048201548152602001600582015481526020016006820180548060200260200160405190810160405280929190818152602001828054801561125857602002820191906000526020600020905b8160009054906101000a900473ffffffffffffffffffffffffffffffffffffffff1673ffffffffffffffffffffffffffffffffffffffff168152602001906001019080831161120e575b50505050508152602001600782018054806020026020016040519081016040528092919081815260200182805480156112e657602002820191906000526020600020905b8160009054906101000a900473ffffffffffffffffffffffffffffffffffffffff1673ffffffffffffffffffffffffffffffffffffffff168152602001906001019080831161129c575b505050505081526020016008820160009054906101000a900460ff1615151515815250509050806040015173ffffffffffffffffffffffffffffffffffffffff163373ffffffffffffffffffffffffffffffffffffffff1614611375576040517f8933565300000000000000000000000000000000000000000000000000000000815260040160405180910390fd5b60005b8160c00151518160ff1610156113ec576113d9838360c001518360ff16815181106113cc577f4e487b7100000000000000000000000000000000000000000000000000000000600052603260045260246000fd5b60200260200101516105e7565b80806113e490611af5565b915050611378565b505050565b8280546113fd90611ac3565b90600052602060002090601f01602090048101928261141f5760008555611466565b82601f1061143857805160ff1916838001178555611466565b82800160010185558215611466579182015b8281111561146557825182559160200191906001019061144a565b5b5090506114739190611501565b5090565b8280548282559060005260206000209081019282156114f0579160200282015b828111156114ef5782518260006101000a81548173ffffffffffffffffffffffffffffffffffffffff021916908373ffffffffffffffffffffffffffffffffffffffff16021790555091602001919060010190611497565b5b5090506114fd9190611501565b5090565b5b8082111561151a576000816000905550600101611502565b5090565b60008135905061152d81611bcc565b92915050565b60008135905061154281611be3565b92915050565b60008083601f84011261155a57600080fd5b8235905067ffffffffffffffff81111561157357600080fd5b60208301915083600182028301111561158b57600080fd5b9250929050565b6000813590506115a181611bfa565b92915050565b6000602082840312156115b957600080fd5b60006115c784828501611533565b91505092915050565b600080604083850312156115e357600080fd5b60006115f185828601611533565b92505060206116028582860161151e565b9150509250929050565b60008060008060006080868803121561162457600080fd5b600061163288828901611592565b955050602061164388828901611592565b945050604061165488828901611592565b935050606086013567ffffffffffffffff81111561167157600080fd5b61167d88828901611548565b92509250509295509295909350565b61169581611a22565b82525050565b6116ac6116a782611a22565b611b1f565b82525050565b6116bb81611a34565b82525050565b6116ca81611a40565b82525050565b60006116dc838561192d565b93506116e9838584611a81565b6116f283611bab565b840190509392505050565b600061170882611917565b611712818561192d565b9350611722818560208601611a90565b61172b81611bab565b840191505092915050565b6000611743600083611922565b915061174e82611bc9565b600082019050919050565b61176281611a6a565b82525050565b61177961177482611a6a565b611b43565b82525050565b600061178b828861169b565b60148201915061179b828761169b565b6014820191506117ab8286611768565b6020820191506117bb8285611768565b6020820191506117cb8284611768565b6020820191508190509695505050505050565b60006117e982611736565b9150819050919050565b600060208201905061180860008301846116c1565b92915050565b600060408201905061182360008301856116c1565b611830602083018461168c565b9392505050565b600060c08201905061184c600083018a6116c1565b611859602083018961168c565b6118666040830188611759565b6118736060830187611759565b6118806080830186611759565b81810360a08301526118938184866116d0565b905098975050505050505050565b600060e0820190506118b6600083018a6116c1565b81810360208301526118c881896116fd565b90506118d7604083018861168c565b6118e46060830187611759565b6118f16080830186611759565b6118fe60a0830185611759565b61190b60c08301846116b2565b98975050505050505050565b600081519050919050565b600081905092915050565b600082825260208201905092915050565b600061194982611a6a565b915061195483611a6a565b9250827fffffffffffffffffffffffffffffffffffffffffffffffffffffffffffffffff0382111561198957611988611b4d565b5b828201905092915050565b600061199f82611a6a565b91506119aa83611a6a565b9250817fffffffffffffffffffffffffffffffffffffffffffffffffffffffffffffffff04831182151516156119e3576119e2611b4d565b5b828202905092915050565b60006119f982611a6a565b9150611a0483611a6a565b925082821015611a1757611a16611b4d565b5b828203905092915050565b6000611a2d82611a4a565b9050919050565b60008115159050919050565b6000819050919050565b600073ffffffffffffffffffffffffffffffffffffffff82169050919050565b6000819050919050565b600060ff82169050919050565b82818337600083830152505050565b60005b83811015611aae578082015181840152602081019050611a93565b83811115611abd576000848401525b50505050565b60006002820490506001821680611adb57607f821691505b60208210811415611aef57611aee611b7c565b5b50919050565b6000611b0082611a74565b915060ff821415611b1457611b13611b4d565b5b600182019050919050565b6000611b2a82611b31565b9050919050565b6000611b3c82611bbc565b9050919050565b6000819050919050565b7f4e487b7100000000000000000000000000000000000000000000000000000000600052601160045260246000fd5b7f4e487b7100000000000000000000000000000000000000000000000000000000600052602260045260246000fd5b6000601f19601f8301169050919050565b60008160601b9050919050565b50565b611bd581611a22565b8114611be057600080fd5b50565b611bec81611a40565b8114611bf757600080fd5b50565b611c0381611a6a565b8114611c0e57600080fd5b5056fea2646970667358221220d122f83f6d668a0e6da213c65998f3a382eb61bf5c357069a3683fecaf2d965a64736f6c63430008040033",
  "linkReferences": {},
  "deployedLinkReferences": {}
}